{
  "contractName": "manageManufacturers",
  "abi": [
    {
      "inputs": [],
      "payable": false,
      "stateMutability": "nonpayable",
      "type": "constructor"
    },
    {
      "constant": true,
      "inputs": [
        {
          "internalType": "address",
          "name": "",
          "type": "address"
        }
      ],
      "name": "manufacturerByAddress",
      "outputs": [
        {
          "internalType": "string",
          "name": "manufacturerName",
          "type": "string"
        },
        {
          "internalType": "string",
          "name": "manufacturerLocation",
          "type": "string"
        },
        {
          "internalType": "address",
          "name": "manufacturerAddr",
          "type": "address"
        }
      ],
      "payable": false,
      "stateMutability": "view",
      "type": "function"
    },
    {
      "constant": true,
      "inputs": [],
      "name": "owner",
      "outputs": [
        {
          "internalType": "address",
          "name": "",
          "type": "address"
        }
      ],
      "payable": false,
      "stateMutability": "view",
      "type": "function"
    },
    {
      "constant": false,
      "inputs": [
        {
          "internalType": "string",
          "name": "_manufacturerName",
          "type": "string"
        },
        {
          "internalType": "string",
          "name": "_manufacturerLocation",
          "type": "string"
        },
        {
          "internalType": "address",
          "name": "_manufacturerAddr",
          "type": "address"
        }
      ],
      "name": "registerManufacturer",
      "outputs": [
        {
          "internalType": "bool",
          "name": "",
          "type": "bool"
        }
      ],
      "payable": false,
      "stateMutability": "nonpayable",
      "type": "function"
    }
  ],
  "bytecode": "0x608060405234801561001057600080fd5b50336000806101000a81548173ffffffffffffffffffffffffffffffffffffffff021916908373ffffffffffffffffffffffffffffffffffffffff160217905550610823806100606000396000f3fe608060405234801561001057600080fd5b50600436106100415760003560e01c80638da5cb5b14610046578063c3efcc1314610064578063ff0bdf6814610094575b600080fd5b61004e6100c6565b60405161005b91906106b0565b60405180910390f35b61007e600480360361007991908101906105d0565b6100eb565b60405161008b91906106cb565b60405180910390f35b6100ae60048036036100a991908101906105a7565b6102f2565b6040516100bd939291906106e6565b60405180910390f35b6000809054906101000a900473ffffffffffffffffffffffffffffffffffffffff1681565b60008060009054906101000a900473ffffffffffffffffffffffffffffffffffffffff1673ffffffffffffffffffffffffffffffffffffffff163373ffffffffffffffffffffffffffffffffffffffff161461014657600080fd5b61014e61046c565b86868080601f016020809104026020016040519081016040528093929190818152602001838380828437600081840152601f19601f82011690508083019250505050505050816000018190525084848080601f016020809104026020016040519081016040528093929190818152602001838380828437600081840152601f19601f82011690508083019250505050505050816020018190525082816040019073ffffffffffffffffffffffffffffffffffffffff16908173ffffffffffffffffffffffffffffffffffffffff168152505080600160008573ffffffffffffffffffffffffffffffffffffffff1673ffffffffffffffffffffffffffffffffffffffff168152602001908152602001600020600082015181600001908051906020019061027c9291906104a3565b5060208201518160010190805190602001906102999291906104a3565b5060408201518160020160006101000a81548173ffffffffffffffffffffffffffffffffffffffff021916908373ffffffffffffffffffffffffffffffffffffffff160217905550905050600191505095945050505050565b6001602052806000526040600020600091509050806000018054600181600116156101000203166002900480601f01602080910402602001604051908101604052809291908181526020018280546001816001161561010002031660029004801561039e5780601f106103735761010080835404028352916020019161039e565b820191906000526020600020905b81548152906001019060200180831161038157829003601f168201915b505050505090806001018054600181600116156101000203166002900480601f01602080910402602001604051908101604052809291908181526020018280546001816001161561010002031660029004801561043c5780601f106104115761010080835404028352916020019161043c565b820191906000526020600020905b81548152906001019060200180831161041f57829003601f168201915b5050505050908060020160009054906101000a900473ffffffffffffffffffffffffffffffffffffffff16905083565b60405180606001604052806060815260200160608152602001600073ffffffffffffffffffffffffffffffffffffffff1681525090565b828054600181600116156101000203166002900490600052602060002090601f016020900481019282601f106104e457805160ff1916838001178555610512565b82800160010185558215610512579182015b828111156105115782518255916020019190600101906104f6565b5b50905061051f9190610523565b5090565b61054591905b80821115610541576000816000905550600101610529565b5090565b90565b600081359050610557816107c9565b92915050565b60008083601f84011261056f57600080fd5b8235905067ffffffffffffffff81111561058857600080fd5b6020830191508360018202830111156105a057600080fd5b9250929050565b6000602082840312156105b957600080fd5b60006105c784828501610548565b91505092915050565b6000806000806000606086880312156105e857600080fd5b600086013567ffffffffffffffff81111561060257600080fd5b61060e8882890161055d565b9550955050602086013567ffffffffffffffff81111561062d57600080fd5b6106398882890161055d565b9350935050604061064c88828901610548565b9150509295509295909350565b61066281610747565b82525050565b61067181610759565b82525050565b60006106828261072b565b61068c8185610736565b935061069c818560208601610785565b6106a5816107b8565b840191505092915050565b60006020820190506106c56000830184610659565b92915050565b60006020820190506106e06000830184610668565b92915050565b600060608201905081810360008301526107008186610677565b905081810360208301526107148185610677565b90506107236040830184610659565b949350505050565b600081519050919050565b600082825260208201905092915050565b600061075282610765565b9050919050565b60008115159050919050565b600073ffffffffffffffffffffffffffffffffffffffff82169050919050565b60005b838110156107a3578082015181840152602081019050610788565b838111156107b2576000848401525b50505050565b6000601f19601f8301169050919050565b6107d281610747565b81146107dd57600080fd5b5056fea365627a7a7231582038ac8b9b7a9f1fe4538a67a825d3465a9ffc695dec7a4d16156ac626aaf78af76c6578706572696d656e74616cf564736f6c63430005100040",
  "source": "pragma solidity ^0.5.16;\r\npragma experimental ABIEncoderV2;\r\n\r\ncontract manageManufacturers{\r\n\r\n  address public owner;\r\n\r\n  struct manufacturer{\r\n    string manufacturerName;\r\n    string manufacturerLocation;\r\n    address manufacturerAddr;\r\n  }\r\n\r\n  mapping(address => manufacturer) public manufacturerByAddress;\r\n\r\n  constructor() public {owner=msg.sender;}\r\n\r\n  function registerManufacturer(string calldata _manufacturerName, string calldata _manufacturerLocation, address _manufacturerAddr) external onlyOwner returns(bool){\r\n    manufacturer memory newManufacturer;\r\n    newManufacturer.manufacturerName = _manufacturerName;\r\n    newManufacturer.manufacturerLocation = _manufacturerLocation;\r\n    newManufacturer.manufacturerAddr = _manufacturerAddr;\r\n    manufacturerByAddress[_manufacturerAddr] = newManufacturer;\r\n    return true;\r\n  }\r\n\r\n  modifier onlyOwner {\r\n      require(msg.sender == owner);\r\n      _;\r\n  }\r\n}\r\n",
  "sourcePath": "C:\\Users\\MAHE\\Desktop\\FnF\\contracts\\manageManufacturers.sol",
  "compiler": {
    "name": "solc",
    "version": "0.5.16+commit.9c3226ce.Emscripten.clang"
  },
  "schemaVersion": "3.1.0",
  "updatedAt": "2020-07-09T03:34:55.143Z",
  "networkType": "ethereum",
  "devdoc": {
    "methods": {}
  },
  "userdoc": {
    "methods": {}
  }
}