{
  "contractName": "productSC",
  "abi": [
    {
      "inputs": [
        {
          "internalType": "string",
          "name": "_productName",
          "type": "string"
        },
        {
          "internalType": "uint256",
          "name": "_productId",
          "type": "uint256"
        },
        {
          "internalType": "string",
          "name": "_description",
          "type": "string"
        },
        {
          "internalType": "uint256",
          "name": "_totalSupply",
          "type": "uint256"
        },
        {
          "internalType": "address",
          "name": "_manufacturer",
          "type": "address"
        }
      ],
      "payable": false,
      "stateMutability": "nonpayable",
      "type": "constructor"
    },
    {
      "anonymous": false,
      "inputs": [
        {
          "indexed": true,
          "internalType": "address",
          "name": "_from",
          "type": "address"
        },
        {
          "indexed": true,
          "internalType": "address",
          "name": "_to",
          "type": "address"
        },
        {
          "indexed": false,
          "internalType": "uint256",
          "name": "_value",
          "type": "uint256"
        }
      ],
      "name": "Transfer",
      "type": "event"
    },
    {
      "constant": true,
      "inputs": [],
      "name": "decimal",
      "outputs": [
        {
          "internalType": "uint256",
          "name": "",
          "type": "uint256"
        }
      ],
      "payable": false,
      "stateMutability": "view",
      "type": "function"
    },
    {
      "constant": true,
      "inputs": [],
      "name": "getProductInfo",
      "outputs": [
        {
          "components": [
            {
              "internalType": "string",
              "name": "productName",
              "type": "string"
            },
            {
              "internalType": "uint256",
              "name": "productId",
              "type": "uint256"
            },
            {
              "internalType": "string",
              "name": "description",
              "type": "string"
            },
            {
              "internalType": "uint256",
              "name": "totalSupply",
              "type": "uint256"
            },
            {
              "internalType": "address",
              "name": "manufacturer",
              "type": "address"
            }
          ],
          "internalType": "struct productSC.product",
          "name": "_p",
          "type": "tuple"
        }
      ],
      "payable": false,
      "stateMutability": "view",
      "type": "function"
    },
    {
      "constant": true,
      "inputs": [
        {
          "internalType": "address",
          "name": "entity",
          "type": "address"
        }
      ],
      "name": "balanceOf",
      "outputs": [
        {
          "internalType": "uint256",
          "name": "balance",
          "type": "uint256"
        }
      ],
      "payable": false,
      "stateMutability": "view",
      "type": "function"
    },
    {
      "constant": false,
      "inputs": [
        {
          "internalType": "address",
          "name": "_to",
          "type": "address"
        },
        {
          "internalType": "uint256",
          "name": "_amount",
          "type": "uint256"
        }
      ],
      "name": "transfer",
      "outputs": [
        {
          "internalType": "bool",
          "name": "success",
          "type": "bool"
        }
      ],
      "payable": false,
      "stateMutability": "nonpayable",
      "type": "function"
    }
  ],
  "bytecode": "0x60806040523480156200001157600080fd5b5060405162000cb638038062000cb683398181016040526200003791908101906200024e565b846000800190805190602001906200005192919062000115565b508360006001018190555082600060020190805190602001906200007792919062000115565b508160006003018190555080600060040160006101000a81548173ffffffffffffffffffffffffffffffffffffffff021916908373ffffffffffffffffffffffffffffffffffffffff16021790555081600560008373ffffffffffffffffffffffffffffffffffffffff1673ffffffffffffffffffffffffffffffffffffffff16815260200190815260200160002081905550505050505062000405565b828054600181600116156101000203166002900490600052602060002090601f016020900481019282601f106200015857805160ff191683800117855562000189565b8280016001018555821562000189579182015b82811115620001885782518255916020019190600101906200016b565b5b5090506200019891906200019c565b5090565b620001c191905b80821115620001bd576000816000905550600101620001a3565b5090565b90565b600081519050620001d581620003d1565b92915050565b600082601f830112620001ed57600080fd5b815162000204620001fe8262000330565b62000302565b915080825260208301602083018583830111156200022157600080fd5b6200022e8382846200039b565b50505092915050565b6000815190506200024881620003eb565b92915050565b600080600080600060a086880312156200026757600080fd5b600086015167ffffffffffffffff8111156200028257600080fd5b6200029088828901620001db565b9550506020620002a38882890162000237565b945050604086015167ffffffffffffffff811115620002c157600080fd5b620002cf88828901620001db565b9350506060620002e28882890162000237565b9250506080620002f588828901620001c4565b9150509295509295909350565b6000604051905081810181811067ffffffffffffffff821117156200032657600080fd5b8060405250919050565b600067ffffffffffffffff8211156200034857600080fd5b601f19601f8301169050602081019050919050565b60006200036a8262000371565b9050919050565b600073ffffffffffffffffffffffffffffffffffffffff82169050919050565b6000819050919050565b60005b83811015620003bb5780820151818401526020810190506200039e565b83811115620003cb576000848401525b50505050565b620003dc816200035d565b8114620003e857600080fd5b50565b620003f68162000391565b81146200040257600080fd5b50565b6108a180620004156000396000f3fe608060405234801561001057600080fd5b506004361061004c5760003560e01c806370a082311461005157806376809ce314610081578063a9059cbb1461009f578063fc72a385146100cf575b600080fd5b61006b600480360361006691908101906105d9565b6100ed565b604051610078919061076d565b60405180910390f35b610089610136565b604051610096919061076d565b60405180910390f35b6100b960048036036100b49190810190610602565b61013b565b6040516100c69190610730565b60405180910390f35b6100d761039f565b6040516100e4919061074b565b60405180910390f35b6000600560008373ffffffffffffffffffffffffffffffffffffffff1673ffffffffffffffffffffffffffffffffffffffff168152602001908152602001600020549050919050565b600081565b600081600560003373ffffffffffffffffffffffffffffffffffffffff1673ffffffffffffffffffffffffffffffffffffffff168152602001908152602001600020541015801561018c5750600082115b80156102175750600560008473ffffffffffffffffffffffffffffffffffffffff1673ffffffffffffffffffffffffffffffffffffffff1681526020019081526020016000205482600560008673ffffffffffffffffffffffffffffffffffffffff1673ffffffffffffffffffffffffffffffffffffffff1681526020019081526020016000205401115b156103945781600560003373ffffffffffffffffffffffffffffffffffffffff1673ffffffffffffffffffffffffffffffffffffffff1681526020019081526020016000205403600560003373ffffffffffffffffffffffffffffffffffffffff1673ffffffffffffffffffffffffffffffffffffffff1681526020019081526020016000208190555081600560008573ffffffffffffffffffffffffffffffffffffffff1673ffffffffffffffffffffffffffffffffffffffff1681526020019081526020016000205401600560008573ffffffffffffffffffffffffffffffffffffffff1673ffffffffffffffffffffffffffffffffffffffff168152602001908152602001600020819055508273ffffffffffffffffffffffffffffffffffffffff163373ffffffffffffffffffffffffffffffffffffffff167fddf252ad1be2c89b69c2b068fc378daa952ba7f163c4a11628f55a4df523b3ef84604051610383919061076d565b60405180910390a360019050610399565b600090505b92915050565b6103a761056a565b60006040518060a0016040529081600082018054600181600116156101000203166002900480601f01602080910402602001604051908101604052809291908181526020018280546001816001161561010002031660029004801561044d5780601f106104225761010080835404028352916020019161044d565b820191906000526020600020905b81548152906001019060200180831161043057829003601f168201915b5050505050815260200160018201548152602001600282018054600181600116156101000203166002900480601f0160208091040260200160405190810160405280929190818152602001828054600181600116156101000203166002900480156104f95780601f106104ce576101008083540402835291602001916104f9565b820191906000526020600020905b8154815290600101906020018083116104dc57829003601f168201915b50505050508152602001600382015481526020016004820160009054906101000a900473ffffffffffffffffffffffffffffffffffffffff1673ffffffffffffffffffffffffffffffffffffffff1673ffffffffffffffffffffffffffffffffffffffff1681525050905080905090565b6040518060a0016040528060608152602001600081526020016060815260200160008152602001600073ffffffffffffffffffffffffffffffffffffffff1681525090565b6000813590506105be81610830565b92915050565b6000813590506105d381610847565b92915050565b6000602082840312156105eb57600080fd5b60006105f9848285016105af565b91505092915050565b6000806040838503121561061557600080fd5b6000610623858286016105af565b9250506020610634858286016105c4565b9150509250929050565b610647816107a4565b82525050565b610656816107b6565b82525050565b600061066782610788565b6106718185610793565b93506106818185602086016107ec565b61068a8161081f565b840191505092915050565b600060a08301600083015184820360008601526106b2828261065c565b91505060208301516106c76020860182610712565b50604083015184820360408601526106df828261065c565b91505060608301516106f46060860182610712565b506080830151610707608086018261063e565b508091505092915050565b61071b816107e2565b82525050565b61072a816107e2565b82525050565b6000602082019050610745600083018461064d565b92915050565b600060208201905081810360008301526107658184610695565b905092915050565b60006020820190506107826000830184610721565b92915050565b600081519050919050565b600082825260208201905092915050565b60006107af826107c2565b9050919050565b60008115159050919050565b600073ffffffffffffffffffffffffffffffffffffffff82169050919050565b6000819050919050565b60005b8381101561080a5780820151818401526020810190506107ef565b83811115610819576000848401525b50505050565b6000601f19601f8301169050919050565b610839816107a4565b811461084457600080fd5b50565b610850816107e2565b811461085b57600080fd5b5056fea365627a7a723158201d6dea751fd3b426b85b3f486356cfa931a2d0418d28dbd4d92dba1c5da083a76c6578706572696d656e74616cf564736f6c63430005100040",
  "source": "pragma solidity ^0.5.16;\r\npragma experimental ABIEncoderV2;\r\n\r\ncontract manageProducts{\r\n\r\n  address public owner;\r\n\r\n  address[] productsInTheMarket;\r\n\r\n  constructor() public {owner=msg.sender;}\r\n\r\n  function releaseNewProduct(string calldata _productName, uint256 _productId, string calldata _description, uint256 _totalSupply, address _manufacturerAddress) external onlyOwner returns (bool success){\r\n    productSC newProduct = new productSC (_productName, _productId ,_description, _totalSupply, _manufacturerAddress);\r\n    productsInTheMarket.push(address(newProduct));\r\n  }\r\n\r\n  function getProductsInTheMarket() public view returns (address[] memory){\r\n  return productsInTheMarket;\r\n}\r\n\r\n  modifier onlyOwner {\r\n      require(msg.sender == owner);\r\n      _;\r\n  }\r\n}\r\n\r\ncontract productSC{\r\n\r\n  struct product{\r\n    string productName;\r\n    uint256 productId;\r\n    string description;\r\n    uint256 totalSupply;\r\n    address manufacturer;\r\n  }\r\n\r\n  product p;\r\n  uint256 public constant decimal = 0;\r\n  mapping(address => uint256) balances;\r\n\r\n  constructor(string memory _productName, uint256 _productId ,string memory _description, uint256 _totalSupply, address _manufacturer) public {\r\n      p.productName = _productName;\r\n      p.productId = _productId;\r\n      p.description = _description;\r\n      p.totalSupply = _totalSupply;\r\n      p.manufacturer = _manufacturer;\r\n      balances[_manufacturer] = _totalSupply;\r\n  }\r\n\r\n\r\n  function getProductInfo() external view returns (product memory _p){\r\n      _p=p;\r\n      return _p;\r\n  }\r\n\r\n  function balanceOf(address entity) external view returns (uint256 balance){\r\n      return balances[entity];\r\n  }\r\n\r\n  function transfer(address _to, uint256 _amount) external returns (bool success){\r\n      if (balances[msg.sender] >= _amount\r\n      && _amount > 0\r\n      && balances[_to] + _amount > balances[_to]){\r\n          balances[msg.sender] = balances[msg.sender] - _amount;\r\n          balances[_to] = balances[_to] + _amount;\r\n          emit Transfer(msg.sender, _to, _amount);\r\n          return true;\r\n      }\r\n      else{\r\n          return false;\r\n      }\r\n  }\r\n\r\n  event Transfer(\r\n    address indexed _from,\r\n    address indexed _to,\r\n    uint256 _value);\r\n\r\n}\r\n",
  "sourcePath": "C:\\Users\\MAHE\\Desktop\\FnF\\contracts\\manageProducts.sol",
  "compiler": {
    "name": "solc",
    "version": "0.5.16+commit.9c3226ce.Emscripten.clang"
  },
  "schemaVersion": "3.1.0",
  "updatedAt": "2020-07-09T03:34:51.874Z",
  "devdoc": {
    "methods": {}
  },
  "userdoc": {
    "methods": {}
  }
}